:100000000C942A000C9436000C9448000C94340094
:100010000C9434000C9434000C9434000C94340090
:100020000C9434000C9434000C9434000C94340080
:100030000C9434000C9434000C9434000C94340070
:100040000C9434000C9434000C9434000C94340060
:100050000C94340011241FBECFE5D8E0DEBFCDBF25
:100060000E945A000C9479000C9400001F920F9289
:100070000FB60F9211248F939F9398B381E0892735
:1000800088BB9F918F910F900FBE0F901F90189576
:100090001F920F920FB60F9211248F939F9398B3D4
:1000A00082E0892788BB9F918F910F900FBE0F90A0
:1000B0001F901895D09A87B3836087BB81B3837FE5
:1000C00081BB82B38C6082BB85B78A6085BF8BB7EA
:1000D000806C8BBF789491E08BB389278BBB2FE921
:1000E00036E881E0215030408040E1F700C0000058
:0600F000F3CFF894FFCFEE
:00000001FF
